:020000040800F2
:1000000000000820F9970008DD650008E365000896
:10001000E9650008EF650008F565000800000000CC
:10002000000000000000000000000000D1A901084D
:10003000FB65000800000000E1AB010849AC0108C5
:10004000499800084998000849980008499800080C
:1000500049980008499800084998000849980008FC
:1000600049980008499800084998000849980008EC
:1000700049980008499800084998000849980008DC
:1000800049980008499800084998000849980008CC
:1000900049980008499800084998000849980008BC
:1000A00049980008499800084998000849980008AC
:1000B000499800084998000849980008499800089C
:1000C000499800084998000849980008499800088C
:1000D000499800084998000849980008499800087C
:1000E000499800084998000849980008499800086C
:1000F000499800084998000849980008499800085C
:10010000499800084998000849980008499800084B
:1001100049980008499800080966000849980008AD
:10012000499800084998000849980008499800082B
:10013000499800081D660008499800084998000879
:100140004998000849980008499800083166000855
:1001500049980008499800084998000849980008FB
:1001600049980008499800084998000849980008EB
:1001700049980008499800084998000800000000C4
:1001800049980008499800084998000849980008CB
:1001900049980008499800084998000849980008BB
:1001A00049980008499800084998000849980008AB
:1001B000499800084998000849980008499800089B
:1001C0004998000849980008000000004998000874
:1001D000499800084998000849980008499800087B
:1001E000499800084998000849980008499800086B
:0801F000499800084998000835
:1002000010B5054C237833B9044B13B10448AFF350
:1002100000800123237010BDE803002000000000CF
:10022000ECFA020808B5034B1BB103490348AFF3CE
:10023000008008BD00000000EC030020ECFA02087A
:1002400010F8012B11F8013B012A28BF9A42F7D080
:10025000D01A7047034613F8012B002AFBD1181A55
:10026000013870470000000000000000000000009E
:1002700001F0FF01102A2BDB10F0070F08D010F857
:10028000013B013A8B422DD010F0070F42B3F6D15B
:10029000F0B441EA012141EA014122F007047FF074
:1002A00000070023F0E80256083C85EA010586EACB
:1002B000010685FA47F5A3FA87F586FA47F6A5FA07
:1002C00087F68EB9EED1F0BC01F0FF0102F0070213
:1002D00032B110F8013B013A83EA010313B1F8D1BE
:1002E0000020704701387047002D06BF354603389F
:1002F000073815F0010F07D1013015F4807F02BFD8
:10030000013015F4C03F0130F0BC0138704700BF28
:1003100081F0004102E000BF83F0004330B54FEAB6
:1003200041044FEA430594EA050F08BF90EA020F23
:100330001FBF54EA000C55EA020C7FEA645C7FEAB6
:10034000655C00F0E2804FEA5454D4EB5555B8BFD9
:100350006D420CDD2C4480EA020281EA030382EA4A
:10036000000083EA010180EA020281EA0303362DDC
:1003700088BF30BD11F0004F4FEA01314FF4801CAF
:100380004CEA113102D0404261EB410113F0004FC1
:100390004FEA03334CEA133302D0524263EB430378
:1003A00094EA050F00F0A780A4F10104D5F1200E16
:1003B0000DDB02FA0EFC22FA05F2801841F1000171
:1003C00003FA0EF2801843FA05F359410EE0A5F145
:1003D00020050EF1200E012A03FA0EFC28BF4CF076
:1003E000020C43FA05F3C01851EBE37101F000452C
:1003F00007D54FF0000EDCF1000C7EEB00006EEB39
:100400000101B1F5801F1BD3B1F5001F0CD34908C2
:100410005FEA30004FEA3C0C04F101044FEA445219
:1004200012F5800F80F09A80BCF1004F08BF5FEAA0
:10043000500C50F1000041EB045141EA050130BD80
:100440005FEA4C0C404141EB0101013C28BFB1F592
:10045000801FE9D291F0000F04BF01460020B1FADD
:1004600081F308BF2033A3F10B03B3F120020CDAB0
:100470000C3208DD02F1140CC2F10C0201FA0CF08E
:1004800021FA02F10CE002F11402D8BFC2F1200CF3
:1004900001FA02F120FA0CFCDCBF41EA0C019040A9
:1004A000E41AA2BF01EB0451294330BD6FEA0404F2
:1004B0001F3C1CDA0C340EDC04F11404C4F12002DD
:1004C00020FA04F001FA02F340EA030021FA04F3EF
:1004D00045EA030130BDC4F10C04C4F1200220FA46
:1004E00002F001FA04F340EA0300294630BD21FA84
:1004F00004F0294630BD94F0000F83F4801306BF4A
:1005000081F480110134013D4EE77FEA645C18BF3D
:100510007FEA655C29D094EA050F08BF90EA020FD4
:1005200005D054EA000C04BF1946104630BD91EACC
:10053000030F1EBF0021002030BD5FEA545C05D1CF
:100540004000494128BF41F0004130BD14F580040E
:100550003CBF01F5801130BD01F0004545F0FE4182
:1005600041F470014FF0000030BD7FEA645C1ABFB7
:10057000194610467FEA655C1CBF0B46024650EAEE
:10058000013406BF52EA033591EA030F41F400211A
:1005900030BD00BF90F0000F04BF0021704730B5A0
:1005A0004FF4806404F132044FF000054FF0000175
:1005B00050E700BF90F0000F04BF0021704730B536
:1005C0004FF4806404F1320410F0004548BF40420B
:1005D0004FF000013EE700BF42004FEAE2014FEA60
:1005E00031014FEA02701FBF12F07F4393F07F4F3B
:1005F00081F06051704732F07F4208BF704793F03E
:100600007F4F04BF41F40021704730B54FF4607450
:1006100001F0004521F000411CE700BF50EA010253
:1006200008BF704730B54FF000050AE050EA0102FC
:1006300008BF704730B511F0004502D5404261EB6C
:1006400041014FF4806404F132045FEA915C3FF4AD
:10065000D8AE4FF003025FEADC0C18BF03325FEA4A
:10066000DC0C18BF033202EBDC02C2F1200300FAFB
:1006700003FC20FA02F001FA03FE40EA0E0021FA20
:1006800002F11444BDE600BF7BB972B90029BEBFB8
:1006900000204FF0004106E008BF00281CBF6FF0AB
:1006A00000414FF0FF3000F0F3B9ADF1080C6DE9F7
:1006B00004CE002909DB002B1ADB00F085F8DDF8F9
:1006C00004E0DDE9022304B07047404261EB4101E0
:1006D000002B1BDB00F078F8DDF804E0DDE90223F5
:1006E00004B0404261EB4101524263EB4303704767
:1006F000524263EB430300F067F8DDF804E0DDE904
:10070000022304B0404261EB41017047524263EB67
:10071000430300F059F8DDF804E0DDE9022304B0FA
:10072000524263EB4303704753B94AB9002908BFEB
:1007300000281CBF4FF0FF314FF0FF3000F0A8B988
:10074000ADF1080C6DE904CE00F03EF8DDF804E0F0
:10075000DDE9022304B0704708B502460B4643ECBE
:10076000172BB5EEC07BF1EE10FA03D4BDE80840BC
:1007700000F00AB8B1EE477B51EC170B00F004F81B
:10078000404261EB410108BD9FED0B6B41EC170B43
:100790009FED0B5B27EE066BBCEEC66BB8EE464BCF
:1007A000A4EE457BFCEEC77B16EE101A17EE900AFE
:1007B000704700BFAFF30080000000000000F03D74
:1007C000000000000000F0412DE9F047089E0D46B2
:1007D00004460F46002B4AD18A42944665D9B2FAA4
:1007E00082F343B102FA03FCC3F120029F4020FAD6
:1007F00002F217439C404FEA1C4E1FFA8CF5B7FBE0
:10080000FEF1220C0EFB117742EA074201FB05F0D4
:1008100090420AD91CEB020201F1FF3780F01C81E3
:10082000904240F2198102396244121AA4B2B2FB1A
:10083000FEF00EFB102244EA024400FB05F5A5423F
:100840000AD91CEB040400F1FF3280F00781A542B5
:1008500040F204816444023840EA0140641B0021F4
:100860001EB1DC400023C6E90043BDE8F0878B429F
:1008700008D9002E00F0ED800021C6E900050846E9
:10088000BDE8F087B3FA83F1002949D1AB4202D326
:10089000824200F2F880841A65EB030201201746B9
:1008A000002EE2D0C6E90047DFE702B9FFDEB2FA68
:1008B00082F3002B40F090808A1A4FEA1C471FFAFF
:1008C0008CFE0121B2FBF7F507FB1520220C42EA52
:1008D00000420EFB05F0904208D91CEB020205F124
:1008E000FF3802D2904200F2CB804546121AA4B2E1
:1008F000B2FBF7F007FB102244EA02440EFB00FEB5
:10090000A64508D91CEB040400F1FF3202D2A6452B
:1009100000F2BB801046A4EB0E0440EA05409FE7BE
:10092000C1F120078B4022FA07FC4CEA030C05FAC0
:1009300001F420FA07F3FD404FEA1C492343B5FBBD
:10094000F9F81FFA8CFE09FB18551C0C44EA054403
:1009500008FB0EF5A54202FA01F200FA01F00BD9EC
:100960001CEB040408F1FF3A80F08880A54240F2B5
:100970008580A8F102086444641B9DB2B4FBF9F3BE
:1009800009FB134445EA044403FB0EFEA64508D9BF
:100990001CEB040403F1FF356CD2A6456AD9023B77
:1009A000644443EA0843A3FB0295A4EB0E04AC4263
:1009B000C846AE4656D353D056B1B0EB080264EBEE
:1009C0000E0404FA07F7CA40CC401743C6E9007486
:1009D00018460021BDE8F087C3F1200102FA03FCAC
:1009E00020FA01F225FA01F19D402A434FEA1C4703
:1009F0001FFA8CFEB1FBF7F007FB1015110C41EA52
:100A0000054100FB0EF58D4204FA03F408D91CEBF6
:100A1000010100F1FF382FD28D422DD902386144F7
:100A2000491B92B2B1FBF7F507FB151142EA0142EF
:100A300005FB0EF1914208D91CEB020205F1FF38CB
:100A400016D2914214D9023D6244521A45EA00413D
:100A500038E73146304608E73946E6E61046FBE619
:100A60004845A9D2B9EB020865EB0C0E013BA3E7A0
:100A70004546EAE72B4694E74046D1E7D0467BE778
:100A8000023D624432E708460AE76444023842E71E
:100A9000704700BF80B485B000AF786039607B6874
:100AA000002B02D03B68002B01D1012356E07A686D
:100AB0003B689A420DD1002350E07B681B78002BE5
:100AC00001D100234AE07B6801337B603B6801333E
:100AD0003B607B681B78FB73FB7B0133224A13442A
:100AE0001B7803F00303012B03D1FB7B03F12002EE
:100AF00000E0FA7B3B681B78BB73BB7B01331A4970
:100B00000B441B7803F00303012B02D1BB7B203382
:100B100000E0BB7B9A42D0D07B681B787B737B7BE9
:100B20000133114A13441B7803F00303012B03D153
:100B30007B7B03F1200200E07A7B3B681B783B73F0
:100B40003B7B013308490B441B7803F00303012B63
:100B500002D13B7B203300E03B7BD31A184614378D
:100B6000BD465DF8047B7047C0F8050880B584B0C9
:100B700000AF786039600023FB600023BB607B68B6
:100B8000002B01D1002315E07868FFF763FB0346D3
:100B90000133FB603B681B68F8689847B860BB6826
:100BA000002B01D1002305E0FA687968B8682CF0C1
:100BB000F9FBBB6818461037BD4680BD80B584B0D0
:100BC00000AF78607B681B6828209847F860FB6856
:100BD000002B04D028220021F8682AF0FBFEFB68D5
:100BE00018461037BD4680BD80B584B000AF786030
:100BF0000023FB6037E07B681B68FB607B68DB6879
:100C000003F48073002B08D17B689B68002B04D011
:100C10007B689B681846FFF7E7FF7B68DB6803F497
:100C20008073002B09D17B681B69002B05D0124B08
:100C30005B687A681269104698477B68DB6803F442
:100C40000073002B09D17B681B6A002B05D00A4B6F
:100C50005B687A68126A10469847074B5B68786849
:100C60009847FB687B607B68002BC4D100BF00BF46
:100C70001037BD4680BD00BF0000002080B400AF2B
:100C80002E231846BD465DF8047B70470000000027
:100C900080B598B000AF786039604FF000024FF037
:100CA0000003C7E914230023BB64FFF7E7FF0346F3
:100CB00087F84F300023FB653B68002B03D03B686F
:100CC0001B68002B01D100239FE00023FB653DE062
:100CD0003B681A683B689968FB6D0B4413441B78AA
:100CE000452B17DC2B2B40DB2B3B01229A404E4B34
:100CF0001340002B14BF01230023DBB2002B0BD1C8
:100D000002F00803002B14BF01230023DBB2002BE9
:100D100011D12AE0652B28D13B681A683B68996895
:100D2000FB6D0B441344197807F10802FB6D134463
:100D30000A461A7007E007F10802FB6D134497F8A2
:100D40004F201A7000BFFB6D0133FB65FB6D3E2B1E
:100D50000DD83B68002B0AD03B689A68FB6D1A449B
:100D60003B685B689A42B3D301E000BF00E000BF7C
:100D700007F10802FB6D134400221A7007F14802C4
:100D800007F10803114618462AF0E8FA87ED140B1C
:100D9000BA6C07F108039A4201D1002335E0796863
:100DA000D7E91423C1E9062397ED147B9FED1A6B55
:100DB000B4EEC67BF1EE10FA04DB7B686FF0004204
:100DC0005A6115E097ED147B9FED156BB4EEC67B71
:100DD000F1EE10FA04D87B684FF000425A6107E048
:100DE00097ED147BFDEEC77B17EE902A7B685A6166
:100DF0007B680822DA603B689B68B96C07F10802DF
:100E00008A1A1A443B689A60012318466037BD4627
:100E100080BD00BFAFF300800000C0FFFFFFDF41D7
:100E2000000000000000E0C1E57F000480B584B050
:100E300000AF786039600023FB600023BB607B68F3
:100E4000002B03D07B681B68002B01D1002383E0BB
:100E50007B685B68002B07D07B689A687B685B685F
:100E60009A4201D3002377E03B68002B01DA00238C
:100E700072E07B689A683B68134401333B607B688F
:100E80005B683A689A4205D87B681A687B689B68F9
:100E9000134461E07B681B69002B01D000235BE0F9
:100EA0003B68B3F1804F08D33B68002B03DB6FF046
:100EB0000043BB6004E000234EE03B685B00BB6086
:100EC0007B681B6A002B18D07B681B6A7A681268E3
:100ED000B96810469847F860FB68002B32D17B68F0
:100EE000DB697A681268104698477B6800225A606E
:100EF0007B6800221A6000232EE07B689B69B8683B
:100F00009847F860FB68002B0DD17B68DB697A6835
:100F10001268104698477B6800225A607B6800225E
:100F20001A60002318E07B6819687B689B680133AE
:100F30001A46F8682CF036FA7B68DB697A68126822
:100F4000104698477B68BA685A607B68FA681A60EE
:100F50007B689B68FA68134418461037BD4680BD0D
:100F600090B585B000AF78600023FB607B68002BF4
:100F700013D07B681B68002B0FD07B681A687B68D6
:100F80009B681344FB607B689C68F868FFF762F914
:100F90000346E2187B689A6000E000BF1437BD4644
:100FA00090BD00000000000080B487B000AF87ED66
:100FB000020B87ED001B97ED027BB0EEC76B97ED40
:100FC000007BB0EEC77BB4EEC76BF1EE10FA04DD28
:100FD00097ED027BB0EEC77B03E097ED007BB0EEB0
:100FE000C77B87ED047B97ED026B97ED007B36EEB8
:100FF000477BB0EEC76B97ED047B9FED095B27EE57
:10100000057BB4EEC76BF1EE10FA94BF0123002309
:10101000DBB218461C37BD465DF8047B704700BF45
:10102000000000000000B03C80B592B000AF7860D6
:1010300039600023FB637B68D3E90623C7E90C23EF
:1010400000237B6400233B6400237B6107F11803CA
:1010500000221A605A609A60DA601A619A82FFF779
:101060000DFE034687F82F304FF000024FF00003CB
:10107000C7E902233B68002B01D10023A2E097EDD2
:101080000C6B97ED0C7BB4EE476BF1EE10FA12D6B9
:1010900097ED0C7BB0EEC77B9FED4D6BB4EE467BBE
:1010A000F1EE10FAD4BF01230023DBB283F0010379
:1010B000DBB2002B07D007F11403474918462AF08A
:1010C00039FB78643CE07B685B6907EE903AB8EEE8
:1010D000E77B97ED0C6BB4EE476BF1EE10FA09D19C
:1010E0007B685A6907F114033C4918462AF022FB31
:1010F000786425E007F11400D7E90C2338492AF079
:1011000019FB786407F1080207F114033549184602
:101110002AF030FB0346012B0AD197ED027B97EDB5
:101120000C1BB0EE470BFFF73FFF0346002B07D128
:1011300007F11400D7E90C232B492AF0FBFA786455
:101140007B6C002B02DB7B6C192B01DD002339E06B
:101150007B6C013319463868FFF768FEF863FB6B58
:10116000002B01D100232DE000233B641AE007F19E
:1011700014023B6C13441B7897F82F209A4205D138
:10118000FA6B3B6C13442E221A7008E0FA6B3B6C2E
:10119000134407F114013A6C0A4412781A703B6C3C
:1011A00001333B647B6C3A6C9A42E0D3FA6B3B6C44
:1011B000134400221A703B689A687B6C1A443B689F
:1011C0009A60012318464837BD4680BDAFF30080C2
:1011D000FFFFFFFFFFFFEF7F14FB02081CFB02086D
:1011E00020FB020828FB02082CFB020880B485B013
:1011F00000AF78600023FB600023BB600023BB606E
:101200004CE07A68BB6813441B782F2B0FD97A689F
:10121000BB6813441B78392B09D87A68BB68134420
:101220001B781A46FB681344303BFB602DE07A685C
:10123000BB6813441B78402B0FD97A68BB681344F2
:101240001B78462B09D87A68BB6813441B781A466A
:10125000FB681344373BFB6017E07A68BB681344B4
:101260001B78602B0FD97A68BB6813441B78662BF8
:1012700009D87A68BB6813441B781A46FB68134484
:10128000573BFB6001E000230CE0BB68022B02D857
:10129000FB681B01FB60BB680133BB60BB68032BB1
:1012A000AFD9FB6818461437BD465DF8047B70471C
:1012B00080B58AB000AFF860B9607A6000237B62C5
:1012C0000023FB61FB68BB61002387F82330002308
:1012D00087F82230002387F82130002387F8203058
:1012E000BA68BB69D31A052B40F3B780BB690233D8
:1012F0001846FFF77BFFF861FB69B3F55C4F04D339
:10130000FB69B3F5604FC0F0AA80FB69B3F5584F95
:1013100037D3FB69B3F55C4F33D2BB6906337B61CE
:1013200000233B610C2387F82130BA687B69D31A0C
:10133000052B40F396807B691B785C2B40F09380F3
:101340007B6901331B78752B40F08D807B690233FC
:101350001846FFF74BFF38613B69B3F55C4FC0F0AF
:1013600084803B69B3F5604F7FD2FB699A02434B9F
:1013700013403A69C2F30902134303F580337B62D9
:1013800004E0062387F82130FB697B627B6A7F2BB0
:1013900003D8012387F823301FE07B6AB3F5006F81
:1013A00006D2022387F82330C02387F8203014E0C8
:1013B0007B6AB3F5803F06D2032387F82330E0230E
:1013C00087F8203009E07B6AB3F5881F4FD20423E9
:1013D00087F82330F02387F8203097F82330013B3B
:1013E00087F8223015E07B6ADBB203F03F03DAB204
:1013F0007B68196897F822300B4462F07F02D2B202
:101400001A707B6A9B097B6297F82230013B87F850
:10141000223097F82230002BE5D197F82330012BAA
:1014200009D97B6AD9B27B681B6897F820200A43E8
:10143000D2B21A7007E07B6ADAB27B681B6802F0EE
:101440007F02D2B21A707B681A6897F823301A4468
:101450007B681A6097F821300BE000BF08E000BFFE
:1014600006E000BF04E000BF02E000BF00E000BFF4
:10147000002318462837BD4680BD00BF00FC0F0082
:1014800080B58AB000AF786039603B681A683B6805
:101490009B68013313447B623B681A683B689B6816
:1014A000013313443B620023FB600023FB613B6874
:1014B0001A683B689B6813441B78222B40F0038119
:1014C00000233B610023BB6117E03B6A1B785C2B68
:1014D00010D13B6A5A1C3B681B68D31A1A463B68FA
:1014E0005B689A4280F0F180BB690133BB613B6A63
:1014F00001333B623B6A01333B623B681B683A6ADB
:10150000D31A1A463B685B689A4203D23B6A1B783F
:10151000222BDAD13B681B683A6AD31A1A463B6819
:101520005B689A4280F0D3803B6A1B78222B40F0A4
:10153000CE803B681A683B689B6813443A6AD31AAA
:101540001A46BB69D31A3B613B681B693A69013291
:1015500010469847F861FB69002B00F0BA80FB69E0
:10156000FB6094E07B6A1B785C2B08D07A6A531C82
:101570007B62FB68591CF96012781A7087E00223BD
:10158000FB753A6A7B6AD31A002B40F3A4807B6A0E
:1015900001331B78752B00F3A0805C2B04DA222B1F
:1015A0005CD02F2B5AD098E05C3B192B00F2958031
:1015B00001A252F823F000BF5D160008DB160008F8
:1015C000DB160008DB160008DB160008DB16000837
:1015D00021160008DB160008DB160008DB160008E1
:1015E0002D160008DB160008DB160008DB160008C5
:1015F000DB160008DB160008DB160008DB16000807
:1016000039160008DB160008DB160008DB16000898
:1016100045160008DB160008511600086D16000874
:10162000FB685A1CFA6008221A702CE0FB685A1CEE
:10163000FA600C221A7026E0FB685A1CFA600A2233
:101640001A7020E0FB685A1CFA600D221A701AE02A
:10165000FB685A1CFA6009221A7014E07B6A5A1C53
:10166000FB68591CF96012781A700CE007F10C0342
:101670001A46396A786AFFF71BFE0346FB75FB7D45
:10168000002B2CD000BFFB7D7A6A13447B627A6A00
:101690003B6A9A42FFF466AFFB6800221A707B68CF
:1016A0001022DA607B68FA691A613B681B683A6A43
:1016B000D31A1A463B689A603B689B685A1C3B6881
:1016C0009A6001231EE000BF0AE000BF08E000BFEF
:1016D00006E000BF04E000BF02E000BF00E000BF82
:1016E000FB69002B03D03B685B69F86998477B6A0C
:1016F000002B06D03B681B687A6AD31A1A463B68EF
:101700009A60002318462837BD4680BD80B588B052
:1017100000AF786039600023FB6100233B61002348
:10172000BB610023FB6000237B613B68002B01D180
:10173000002310E17B68002B11D103213868FFF7EB
:1017400075FB38613B69002B01D1002303E13B6944
:10175000834A1188927819809A700123FBE07B6894
:10176000FB6124E0FB691B78222B0FDC082B13DBC9
:10177000083B7C4A22FA03F303F00103002B14BF59
:1017800001230023DBB2002B02D105E05C2B03D147
:101790007B6901337B6107E0FB691B781F2B02D853
:1017A0007B6905337B6100BFFB690133FB61FB692A
:1017B0001B78002BD6D1FA697B68D31A1A467B694D
:1017C0001344FB60FB68033319463868FFF72EFBB0
:1017D00038613B69002B01D10023BCE07B69002B01
:1017E00017D13B6922221A703B690133FA68796884
:1017F00018462BF0D7FDFB6801333A6913442222C7
:101800001A70FB6802333A69134400221A700123EC
:10181000A1E03B6922221A703B690133BB617B68FE
:10182000FB6186E0FB691B781F2B0CD9FB691B78D9
:10183000222B08D0FB691B785C2B04D0FB691A783B
:10184000BB691A706FE0BB695A1CBA615C221A70DE
:10185000FB691B78222B3DDC082B59DB083B1A2B3C
:1018600056D801A252F823F0E91800080919000817
:10187000F918000811190008F118000801190008EA
:101880001119000811190008111900081119000890
:101890001119000811190008111900081119000880
:1018A0001119000811190008111900081119000870
:1018B0001119000811190008111900081119000860
:1018C0001119000811190008111900081119000850
:1018D000E11800085C2B1BD1BB695C221A7022E066
:1018E000BB6922221A701EE0BB6962221A701AE0DC
:1018F000BB6966221A7016E0BB696E221A7012E08C
:10190000BB6972221A700EE0BB6974221A700AE079
:10191000FB691B781A461449B86929F00BFFBB69AB
:101920000433BB6100BFFB690133FB61BB69013359
:10193000BB61FB691B78002B7FF474AFFB6801333C
:101940003A69134422221A70FB6802333A6913443D
:1019500000221A70012318462037BD4680BD00BF03
:1019600034FB02083700000438FB020880B582B05F
:1019700000AF786039607B681B6939681846FFF7EB
:10198000C5FE034618460837BD4680BD80B483B007
:1019900000AF78607B68002B03D07B681B68002B4E
:1019A00001D100232CE07B68002B05D07B689A686E
:1019B0007B685B689A4206D37B6821E07B689B6802
:1019C0005A1C7B689A607B68002B0DD07B689A68F4
:1019D0007B685B689A4207D27B681A687B689B6861
:1019E00013441B78202BE9D97B689A687B685B6875
:1019F0009A4204D17B689B685A1E7B689A607B6818
:101A000018460C37BD465DF8047B704780B582B040
:101A100000AF78607B68002B07D07B681B68002BC9
:101A200003D07B689B68002B01D000231CE07B68FF
:101A3000002B18D07B689B681A1D7B685B689A42F4
:101A400011D27B681A687B689B681344032208499B
:101A5000184629F0E3FF0346002B04D17B689B68FE
:101A6000DA1C7B689A607B6818460837BD4680BDE3
:101A700040FB020880B586B000AFF860B9607A60BC
:101A8000FB68002B01D100230CE0F868FEF7E2FBB5
:101A9000034601337B617B68BA687969F86800F0B6
:101AA00005F8034618461837BD4680BD80B58EB090
:101AB00000AFF860B9607A603B6007F1180300225C
:101AC0001A605A609A60DA601A615A619A6100235A
:101AD0007B63414B00221A603F4B00225A60FB6837
:101AE000002B42D0BB68002B3FD0FB68BB61BB68BA
:101AF000FB6100233B62394A07F1280307CA83E8E8
:101B000007003648FFF75AF878637B6B002B2ED01E
:101B100007F118031846FFF779FF03461846FFF749
:101B200035FF03461946786B00F00CF90346002B8D
:101B30001FD03B68002B0ED007F118031846FFF7A3
:101B400025FF3A6AFB699A4215D2BA693B6A134487
:101B50001B78002B0FD17B68002B04D0BA693B6A3D
:101B60001A447B681A607B6B31E000BF04E000BF61
:101B700002E000BF00E000BF7B6B002B02D0786B5F
:101B8000FFF732F8FB68002B20D0FB683B61002395
:101B90007B613A6AFB699A4202D23B6A7B6105E04B
:101BA000FB69002B02D0FB69013B7B617B68002B4A
:101BB00004D03A697B691A447B681A60064B1A465E
:101BC00007F1100393E8030082E80300002318469E
:101BD0003837BD4680BD00BF04040020000000204F
:101BE00080B582B000AF7860002200217868FFF7EE
:101BF00041FF034618460837BD4680BD80B58EB00C
:101C000000AFF860B9607A6000237B6307F11003CE
:101C100024220021184629F0DDFE7B681B68384A23
:101C200012681046984703463B61354B1B687B6141
:101C3000BB687B627A6807F1280307CA83E807005C
:101C40003B69002B40D007F110031946F86800F0FB
:101C500065F90346002B39D007F110031846FFF74A
:101C60007FF97B689B68002B0DD07B689B68386987
:101C7000BA6901321146984778637B6B002B27D0F5
:101C800000233B611EE07B681B68BA690132104685
:101C9000984778637B6B002B1CD03969BB695A1C51
:101CA0007B69934228BF13461A46786B2BF07AFB68
:101CB000BB697A6B134400221A707B685B683A69CF
:101CC000104698477B6B16E000BF04E000BF02E0BF
:101CD00000BF00E000BF3B69002B04D07B685B685D
:101CE0003A69104698477B6B002B03D07B685B6892
:101CF000786B9847002318463837BD4680BD00BF33
:101D00001438030880B582B000AF7860044A01211E
:101D10007868FFF773FF034618460837BD4680BD55
:101D20000000002080B582B000AF7860044A002136
:101D30007868FFF763FF034618460837BD4680BD45
:101D40000000002080B582B000AF786039603B6849
:101D5000002B03D03B681B68002B01D10023D2E08D
:101D60003B68002B1DD03B689B681A1D3B685B6875
:101D70009A4216D83B681A683B689B681344042251
:101D80006349184629F04AFE0346002B09D17B68B7
:101D90000422DA603B689B681A1D3B689A60012345
:101DA000B1E03B68002B1DD03B689B685A1D3B6827
:101DB0005B689A4216D83B681A683B689B68134474
:101DC00005225449184629F029FE0346002B09D163
:101DD0007B680122DA603B689B685A1D3B689A6009
:101DE000012390E03B68002B20D03B689B681A1DC4
:101DF0003B685B689A4219D83B681A683B689B68E5
:101E0000134404224449184629F008FE0346002BD7
:101E10000CD17B680222DA607B6801225A613B6840
:101E20009B681A1D3B689A6001236CE03B68002B9D
:101E300013D03B689A683B685B689A420DD23B6856
:101E40001A683B689B6813441B78222B05D13968BC
:101E50007868FFF715FB034655E03B68002B23D05D
:101E60003B689A683B685B689A421DD23B681A6877
:101E70003B689B6813441B782D2B0FD03B681A6876
:101E80003B689B6813441B782F2B0DD93B681A685D
:101E90003B689B6813441B78392B05D839687868F0
:101EA000FEF7F6FE03462EE03B68002B13D03B689E
:101EB0009A683B685B689A420DD23B681A683B6837
:101EC0009B6813441B785B2B05D13968786800F058
:101ED00009F9034617E03B68002B13D03B689A686A
:101EE0003B685B689A420DD23B681A683B689B6806
:101EF00013441B787B2B05D13968786800F03CFAD5
:101F0000034600E0002318460837BD4680BD00BFE9
:101F100014FB020844FB02084CFB020880B584B0A5
:101F200000AF786039600023FB607B68002B02D033
:101F30003B68002B01D10023C9E07B68DB68DBB282
:101F4000802B00F08E80802B00F3C080202B49DC9A
:101F5000002B40F3BB80013B1F2B00F2B78001A296
:101F600052F823F00F20000833200008CD2000088D
:101F7000EB1F0008CD200008CD200008CD20000870
:101F800057200008CD200008CD200008CD200008F3
:101F9000CD200008CD200008CD200008CD2000086D
:101FA000A9200008CD200008CD200008CD20000881
:101FB000CD200008CD200008CD200008CD2000084D
:101FC000CD200008CD200008CD200008CD2000083D
:101FD000CD200008CD200008CD200008CD2000082D
:101FE000B5200008402B6BD070E005213868FEF763
:101FF0001DFFF860FB68002B01D1002367E0FB6840
:10200000354A1068186012791A7101235FE00621C1
:102010003868FEF70BFFF860FB68002B01D1002346
:1020200055E0FB682D4A1068186092889A80012359
:102030004DE005213868FEF7F9FEF860FB68002BDB
:1020400001D1002343E0FB68254A1068186012792B
:102050001A7101233BE039687868FEF7E5FF034613
:1020600035E00023BB607B681B69002B01D1002396
:102070002DE07B681B691846FEF7ECF80346013338
:10208000BB60B9683868FEF7D1FEF860FB68002BCA
:1020900001D100231BE07B681B69BA681946F86808
:1020A0002BF080F9012312E039687868FFF75EFCB5
:1020B00003460CE03968786800F0D8F8034606E07B
:1020C0003968786800F057FA034600E000231846A4
:1020D0001037BD4680BD00BF14FB020844FB020858
:1020E0004CFB020880B586B000AF786039600023F1
:1020F0007B6100233B613B68DB68B3F57A7F01D3EA
:102100000023AFE03B68DB685A1C3B68DA603B6841
:102110001A683B689B6813441B785B2B40F09480E3
:102120003B689B685A1C3B689A603868FFF72EFC36
:102130003B68002B0DD03B689A683B685B689A420D
:1021400007D23B681A683B689B6813441B785D2B79
:1021500061D03B68002B05D03B689A683B685B68A0
:102160009A4205D33B689B685A1E3B689A6072E0AE
:102170003B689B685A1E3B689A603B681033184660
:10218000FEF71CFDF860FB68002B5FD07B69002B1D
:1021900004D1FB687B617B693B6107E03B69FA68BE
:1021A0001A60FB683A695A60FB683B613B689B6850
:1021B0005A1C3B689A603868FFF7E8FB3968386951
:1021C000FFF7C0FD0346002B42D03868FFF7DEFB67
:1021D0003B68002B0DD03B689A683B685B689A426D
:1021E00007D23B681A683B689B6813441B782C2B0A
:1021F000C3D03B68002B2DD03B689A683B685B6876
:102200009A4227D23B681A683B689B6813441B7844
:102210005D2B1FD100E000BF3B68DB685A1E3B68A6
:10222000DA607B69002B02D07B693A695A607B686F
:102230002022DA607B687A699A603B689B685A1C46
:102240003B689A6001230DE000BF04E000BF02E09C
:1022500000BF00E000BF7B69002B02D07869FEF769
:10226000C3FC002318461837BD4680BD80B586B034
:1022700000AF7860396000237B610023FB607B68DE
:102280009B683B613B68002B01D1002370E001217A
:102290003868FEF7CBFD78617B69002B01D1002304
:1022A00066E07B695B221A703B689B685A1C3B683E
:1022B0009A603B68DB685A1C3B68DA603DE039682D
:1022C0003869FFF72BFE0346002B01D100234FE0B6
:1022D0003868FEF745FE3B691B68002B2AD03B6837
:1022E0005B69002B01D0022300E00123FB60FB6847
:1022F000013319463868FEF799FD78617B69002B38
:1023000001D1002334E07B695A1C7A612C221A70B7
:102310003B685B69002B04D07B695A1C7A612022E0
:102320001A707B6900221A703B689A68FB681A442D
:102330003B689A603B691B683B613B69002BBED1DF
:1023400002213868FEF772FD78617B69002B01D1AC
:1023500000230DE07B695A1C7A615D221A707B694B
:1023600000221A703B68DB685A1E3B68DA60012362
:1023700018461837BD4680BD80B586B000AF78607E
:10238000396000237B6100233B613B68DB68B3F568
:102390007A7F01D30023EAE03B68DB685A1C3B6884
:1023A000DA603B68002B00F0D0803B689A683B689D
:1023B0005B689A4280F0C9803B681A683B689B68FA
:1023C00013441B787B2B40F0C0803B689B685A1CF1
:1023D0003B689A603868FFF7D9FA3B68002B0ED04B
:1023E0003B689A683B685B689A4208D23B681A6807
:1023F0003B689B6813441B787D2B00F08D803B6805
:10240000002B05D03B689A683B685B689A4205D30D
:102410003B689B685A1E3B689A60A1E03B689B68DA
:102420005A1E3B689A603B6810331846FEF7C6FB9D
:10243000F860FB68002B00F08A807B69002B04D1D8
:10244000FB687B617B693B6107E03B69FA681A6066
:10245000FB683A695A60FB683B613B689B685A1CA1
:102460003B689A603868FFF791FA39683869FFF776
:1024700007F80346002B6CD03868FFF787FA3B69F2
:102480001A693B691A623B6900221A613B68002B9A
:1024900061D03B689A683B685B689A425BD23B6854
:1024A0001A683B689B6813441B783A2B53D13B68EE
:1024B0009B685A1C3B689A603868FFF767FA39686E
:1024C0003869FFF73FFC0346002B46D03868FFF71A
:1024D0005DFA3B68002B0DD03B689A683B685B68EF
:1024E0009A4207D23B681A683B689B6813441B7882
:1024F0002C2B98D03B68002B31D03B689A683B6806
:102500005B689A422BD23B681A683B689B6813440D
:102510001B787D2B23D100E000BF3B68DB685A1E8F
:102520003B68DA607B69002B02D07B693A695A60AC
:102530007B684022DA607B687A699A603B689B68B6
:102540005A1C3B689A60012311E000BF08E000BFFD
:1025500006E000BF04E000BF02E000BF00E000BFF3
:102560007B69002B02D07869FEF73EFB00231846FA
:102570001837BD4680BD80B588B000AF786039603F
:102580000023FB610023FB607B689B68BB613B68A9
:10259000002B01D1002308E13B685B69002B01D0CF
:1025A000022300E00123FB60FB6801331946386811
:1025B000FEF73CFCF861FB69002B01D10023F4E03D
:1025C000FB695A1CFA617B221A703B68DB685A1C53
:1025D0003B68DA603B685B69002B04D0FB695A1CDE
:1025E000FA610A221A703B689A68FB681A443B68D1
:1025F0009A60A0E03B685B69002B22D03B68DB68F7
:1026000019463868FEF712FCF861FB69002B01D10E
:102610000023CAE000237B6107E0FB695A1CFA61D2
:1026200009221A707B6901337B613B68DB687A6938
:102630009A42F2D33B689A683B68DB681A443B686D
:102640009A60BB691B6A39681846FFF75FF8034652
:10265000002B01D10023A8E03868FEF781FC3B681D
:102660005B69002B01D0022300E00123FB60F968C5
:102670003868FEF7DBFBF861FB69002B01D1002312
:1026800093E0FB695A1CFA613A221A703B685B6955
:10269000002B04D0FB695A1CFA6109221A703B68AE
:1026A0009A68FB681A443B689A603968B869FFF712
:1026B00035FC0346002B01D1002376E03868FEF795
:1026C0004FFC3B685B69002B01D0012200E0002237
:1026D000BB691B68002B01D0012300E000231344D9
:1026E000FB60FB68013319463868FEF79FFBF86111
:1026F000FB69002B01D1002357E0BB691B68002B4D
:1027000004D0FB695A1CFA612C221A703B685B6981
:10271000002B04D0FB695A1CFA610A221A70FB696B
:1027200000221A703B689A68FB681A443B689A60FA
:10273000BB691B68BB61BB69002B7FF45BAF3B6867
:102740005B69002B03D03B68DB68013300E00223A8
:1027500019463868FEF76AFBF861FB69002B01D166
:10276000002322E03B685B69002B10D000233B6113
:1027700007E0FB695A1CFA6109221A703B690133B0
:102780003B613B68DB68013B3A699A42F1D3FB69E4
:102790005A1CFA617D221A70FB6900221A703B688C
:1027A000DB685A1E3B68DA60012318462037BD46B5
:1027B00080BD80B485B000AF78600023FB6000234B
:1027C000BB607B68002B01D100230DE07B689B6818
:1027D000FB6005E0BB680133BB60FB681B68FB6006
:1027E000FB68002BF6D1BB6818461437BD465DF870
:1027F000047B704780B485B000AF786039600023F7
:10280000FB607B68002B01D1002310E07B689B6894
:10281000FB6005E03B68013B3B60FB681B68FB60BD
:10282000FB68002B02D03B68002BF3D1FB681846F5
:102830001437BD465DF8047B704780B582B000AFA9
:10284000786039603B68002B01DA002305E03B68C3
:1028500019467868FFF7CEFF034618460837BD468D
:1028600080BD80B586B000AFF860B9607A600023A3
:102870007B61FB68002B02D0BB68002B01D10023D9
:1028800033E0FB689B687B617B68002B17D002E01C
:102890007B691B687B617B69002B1CD07B691B6A91
:1028A000002B18D07B691B6A1946B868FDF7C8FC75
:1028B0000346002BECD10EE07B691B687B617B69D2
:1028C000002B08D07B691B6A1946B868FEF7E2F84E
:1028D0000346002BF0D17B69002B03D07B691B6A78
:1028E000002B01D1002300E07B6918461837BD4654
:1028F00080BD80B582B000AF786039600022396851
:102900007868FFF7AEFF034618460837BD4680BD1E
:1029100080B483B000AF786039607B683A681A6031
:102920003B687A685A6000BF0C37BD465DF8047B8F
:10293000704780B584B000AF786039600023FB60D9
:102940003B68002B06D07B68002B03D07A683B687D
:102950009A4201D100231EE07B689B68FB60FB6804
:10296000002B09D17B683A689A603B683A685A60E4
:102970003B6800221A600DE0FB685B68002B09D001
:10298000FB685B6839681846FFF7C2FF7B689B6885
:102990003A685A60012318461037BD4680BD80B59D
:1029A00082B000AF7860396039687868FFF7C1FF9E
:1029B000034618460837BD4680BD80B483B000AFDB
:1029C00078607B6818460C37BD465DF8047B70471D
:1029D00080B586B000AFF860B9607A603B600023D4
:1029E0007B6100233B61FB68002B09D0BB68002B97
:1029F00006D07B68002B03D0FA687B689A4201D12D
:102A0000002336E03B6A002B09D0B868FFF7D5FFFA
:102A100078617B68DB6843F400733B610EE03968E2
:102A2000B868FEF7A3F878617B69002B01D1002319
:102A30001FE07B68DB6823F400733B617B68DB6825
:102A400003F40073002B09D17B681B6A002B05D0AF
:102A50003B685B687A68126A104698477B687A69B7
:102A60001A627B683A69DA607968F868FFF761FF93
:102A7000034618461837BD4680BD000080B586B0B5
:102A800002AFF860B9607A6000230093054B7A6862
:102A9000B968F868FFF79CFF034618461037BD4633
:102AA00080BD00BF0000002080B588B002AFF86094
:102AB000B96087ED000B97ED000B00F03DF87861F1
:102AC00000230093094B7A69B968F868FFF780FF23
:102AD0000346002B01D07B6903E07869FEF784F898
:102AE000002318461837BD4680BD00BF00000020F7
:102AF00080B588B002AFF860B9607A60786800F09D
:102B000065F8786100230093094B7A69B968F86821
:102B1000FFF75EFF0346002B01D07B6903E0786975
:102B2000FEF762F8002318461837BD4680BD00BF87
:102B3000000000200000000080B584B000AF87EDE9
:102B4000000B2148FEF73AF8F860FB68002B2BD009
:102B5000FB680822DA60F968D7E90023C1E9062397
:102B600097ED007B9FED146BB4EEC67BF1EE10FA8F
:102B700004DBFB686FF000425A6115E097ED007BC3
:102B80009FED0F6BB4EEC67BF1EE10FA04D8FB6834
:102B90004FF000425A6107E097ED007BFDEEC77BE6
:102BA00017EE902AFB685A61FB6818461037BD463D
:102BB00080BD00BFAFF300800000C0FFFFFFDF411A
:102BC000000000000000E0C10000002080B584B0DB
:102BD00000AF78600F48FDF7F1FFF860FB68002B4D
:102BE00012D0FB681022DA600A497868FDF7BEFF50
:102BF0000246FB681A61FB681B69002B04D1F86868
:102C0000FDF7F2FF002300E0FB6818461037BD46D1
:102C100080BD00BF0000002080B582B000AF074833
:102C2000FDF7CCFF78607B68002B02D07B68202208
:102C3000DA607B6818460837BD4680BD000000207A
:102C400080B582B000AF0748FDF7B8FF78607B68B9
:102C5000002B02D07B684022DA607B681846083778
:102C6000BD4680BD0000002080B485B000AFF86094
:102C7000B9607A60FB68074A1A60BB68064A1A6046
:102C80007B6880221A6000BF1437BD465DF8047B64
:102C9000704700BF704800201049002080B487B002
:102CA00000AFF860B9607A603B6000237B61FB682D
:102CB0001B782F2B03D9FB681B78392B01D90323F1
:102CC0002CE03B6800221A6012E03B681A68134649
:102CD0009B0013445B001946FA687B6913441B7818
:102CE0000B44A3F130023B681A607B6901337B61BE
:102CF000BB68002B0BD0FA687B6913441B782F2B21
:102D000005D9FA687B6913441B78392BDDD97B68B8
:102D10001A687B691A447B681A60002318461C37BE
:102D2000BD465DF8047B704780B485B000AF786025
:102D30007B685B68FB607B689B68BB6005E0FB6849
:102D40000133FB60BB68013BBB60BB68002B0AD052
:102D5000FB68002B07D0FB681B78202B03D1FB6896
:102D60001B78002BEBD1BB68002B06D0FB68002B37
:102D700003D0FB681B78002B01D1032325E07B687F
:102D8000FA68DA6005E0FB680133FB60BB68013B71
:102D9000BB60BB68002B0AD0FB68002B07D0FB6828
:102DA0001B78202B03D0FB681B78002BEBD17B68B2
:102DB000DB68FA68D31A1A467B681A617B68FA687E
:102DC0005A607B68BA689A60002318461437BD467B
:102DD0005DF8047B704780B58CB000AFF860B960D7
:102DE0007A603B600023FB61F868FFF79DFF0346B4
:102DF000002B01D0012339E10023BB614FF0FF33E9
:102E00007B6101233B61002387F82F30002387F883
:102E10002E30FB681A69FB699A4201D8012325E12B
:102E2000FB68DA68FB6913441B782A2B07D1FB691E
:102E30000133FB617B68BB613B687B6114E0FB682D
:102E4000DA68FB69D018FB681A69FB69D11A07F1C7
:102E5000180307F11C02FFF721FF0346002B01D0E6
:102E6000032303E1BB697B61FB681A69FB699A4232
:102E700039D9FB68DA68FB6913441B782D2B32D1F2
:102E8000FB690133FB61FB681A69FB699A4201D84F
:102E90000123EBE0FB68DA68FB69D018FB681A696C
:102EA000FB69D11A07F1140307F11C02FFF7F6FEC4
:102EB0000346002B01D00323D8E0BA697B699A420C
:102EC00008D97B693B62BB697B613B6ABB610123BB
:102ED00087F82E307A69BB699A4201D20323C5E094
:102EE000012387F82F30FB681A69FB699A4223D9BE
:102EF000FB68DA68FB6913441B782F2B1CD1FB6934
:102F00000133FB61FB68DA68FB69D018FB681A695A
:102F1000FB69D11A07F1100307F11C02FFF7BEFE8F
:102F20000346002B01D00323A0E097F82F30002B9D
:102F300002D14FF0FF337B61BB697A689A4201D9B5
:102F4000032393E07B693A689A4207D27B69B3F125
:102F5000FF3F01D0032389E03B687B6197F82E3067
:102F6000002B48D07B69BB6218E0BB6ADB08BA68FB
:102F700013441B785AB2BB6A03F00703012101FA1C
:102F800003F35BB2134359B2BB6ADB08BA6813445C
:102F9000CAB21A703B69BA6A1344BB62BA6A3B6828
:102FA0009A42E2D93A69BB6AB3FBF2F101FB02F241
:102FB0009B1A7A681344BB6218E0BB6ADB08BA68E4
:102FC00013441B785AB2BB6A03F00703012101FACC
:102FD00003F35BB2134359B2BB6ADB08BA6813440C
:102FE000CAB21A703B69BA6A1344BB62BB69BA6A57
:102FF0009A42E2D91FE0BB697B6218E07B6ADB087A
:10300000BA6813441B785AB27B6A03F007030121A4
:1030100001FA03F35BB2134359B27B6ADB08BA6867
:103020001344CAB21A703B697A6A13447B627B69A3
:103030007A6A9A42E2D9FB681A69FB699A4213D00C
:10304000FB68DA68FB6913441B782C2B01D003233F
:103050000CE0FB68DA68FB69591CF96113441B78C2
:103060002C2B3FF4C9AE00E000BF002318463037D8
:10307000BD4680BD80B58AB000AFF860B9607A60A7
:1030800007F1100300221A605A609A60DA601A6130
:10309000FB68002B05D0BB68002B02D07B68002B9F
:1030A00001D1022390E02C220021F86828F092FC44
:1030B000FB683B61BB687B617B68BB61FB68191D7A
:1030C00007F110003B230022FFF785FE034687F837
:1030D000273097F82730002B02D097F8273073E07D
:1030E000FB6803F10C0107F110003B230022FFF7FE
:1030F00072FE034687F8273097F82730002B02D05E
:1031000097F8273060E0FB6803F1140107F1100025
:1031100017230022FFF75FFE034687F8273097F852
:103120002730002B02D097F827304DE0FB6803F1E1
:10313000170107F110001F230122FFF74CFE034681
:1031400087F8273097F82730002B02D097F82730E0
:103150003AE0FB6803F11B0107F110000C23012288
:10316000FFF739FE034687F8273097F82730002B02
:1031700002D097F8273027E0FB6803F11D0107F123
:10318000100006230022FFF726FE034687F82730AB
:1031900097F82730002B02D097F8273014E0FB680F
:1031A00003F11E0107F1100064230022FFF713FE54
:1031B000034687F8273097F82730002B02D097F87E
:1031C000273001E097F8273018462837BD4680BDE4
:1031D00080B588B000AFF860B9607A603B600123C9
:1031E000FB7700237B61FB68002B02D07B68002B00
:1031F00001D1022336E00023BB612CE0BB694FF410
:10320000A47202FB03F3BA6813441846FDF722F8D0
:1032100003467B61BB692C2202FB03F3FA68D018DA
:10322000BB694FF4A47202FB03F3BA681344194656
:103230007B691A46FFF71EFF0346FB77FB7F002BD7
:1032400006D03B68002B0BD03B68BA691A6007E0D8
:10325000BB690133BB61BA697B689A42CED300E097
:1032600000BFFB7F18462037BD4680BD80B487B0C5
:1032700000AFF860B9607A600023FB757B681B685B
:103280003B61FB68002B02D0BB68002B01D10223FD
:103290009FE03B692C2202FB03F3BA681A44FB68E7
:1032A0001B68DB1013441B791A46FB681B6803F08C
:1032B000070342FA03F303F00103002B00F08680BA
:1032C0003B692C2202FB03F3BA681A44FB685B6873
:1032D000DB1013441B7B1A46FB685B6803F0070393
:1032E00042FA03F303F00103002B6FD03B692C2259
:1032F00002FB03F3BA681A44FB689B68DB101344B3
:103300001B7D1A46FB689B6803F0070342FA03F330
:1033100003F00103002B59D03B692C2202FB03F37D
:10332000BA681A44FB68DB68DB101344DB7D1A467D
:10333000FB68DB6803F0070342FA03F303F00103C1
:10334000002B43D03B692C2202FB03F3BA681A44DA
:10335000FB681B69DB101344DB7E1A46FB681B69A4
:1033600003F0070342FA03F303F00103002B2DD00F
:103370003B692C2202FB03F3BA681A44FB689B6981
:10338000DB1013445B7F1A46FB689B6903F007035D
:1033900042FA03F303F00103002B17D03B692C2200
:1033A00002FB03F3BA681A44FB685B69643BDB10F9
:1033B00013449B7F1A46FB685B69643B03F0070379
:1033C00042FA03F303F00103002B01D10123FB7543
:1033D000FB7D18461C37BD465DF8047B7047000036
:1033E00080B584B000AFF860B9607A607B68BA6875
:1033F0001449154828F09EF91348FCF72BFF0346A3
:103400009AB24FF47A73104910480BF017FF104925
:10341000B868FCF715FF0346002B03D10D4B0022C3
:103420001A600AE0BB681B78412B03D1094B0122CB
:103430001A6002E0074B09221A6000BF1037BD4630
:1034400080BD00BF54FB0208104B00206C4F0020D1
:1034500088FB0208F84E002080B584B000AFF86009
:10346000B96011461A460B46FB8013467B71FA88F9
:103470007B791C491C4828F05DF91B48FCF7EAFEE3
:1034800003469AB24FF47A73174918480BF0D6FEE8
:103490007B7903F00103002B10D0BA68144912485D
:1034A00028F048F91048FCF7D5FE03469AB24FF4CD
:1034B0007A730D490D480BF0C1FE0EE00D490A4824
:1034C00028F038F90848FCF7C5FE03469AB24FF4D5
:1034D0007A73054905480BF0B1FE00BF1037BD46B1
:1034E00080BD00BF90FB0208104B00206C4F0020F5
:1034F000C4FB0208E0FB020880B582B000AF786030
:103500000B46FB7097F903301A460949094828F021
:1035100011F90848FCF79EFE03469AB24FF47A73FD
:10352000044905480BF08AFE00BF0837BD4680BD40
:1035300010FC0208104B00206C4F002080B588B0B2
:1035400002AFF860B9601346FB80FB88002B37D1CF
:103550002749284828F0EEF82648FCF77BFE03466A
:103560009AB24FF47A73234923480BF067FEBB6885
:10357000224A2349F8681AF061FE01230193BB68CF
:103580000093204B00222049F8681AF093FD03466F
:10359000FB7597F91730002B26D097F917301A468C
:1035A0001A49144828F0C6F81248FCF753FE03469F
:1035B0009AB24FF47A730F490F480BF03FFE13E0B5
:1035C000FB881A4612490B4828F0B4F80948FCF762
:1035D00041FE03469AB24FF47A73064906480BF04F
:1035E0002DFEF86800F016F800BF1837BD4680BD04
:1035F00028FC0208104B00206C4F002059340008B2
:10360000E1330008F934000888FB020854FC020882
:1036100070FC020880B58EB002AF7860396007F1A7
:1036200010031C220021184628F0D4F91B4B3B61E3
:103630001B4BFB6007F10C0107F1100301933B6882
:103640000093184B40F25B7278681AF025FE03462F
:1036500087F82F3097F92F3013F10A0F1AD097F906
:103660002F30002B16D097F92F3013F10A0F11D0FD
:1036700097F92F301A460C490C4828F05BF80B4894
:10368000FCF7E8FD03469AB24FF47A7307490848FD
:103690000BF0D4FD00BF3037BD4680BDA0FC020852
:1036A000C0A812643D350008A8FC0208104B002099
:1036B0006C4F0020B0B58EB000AF144B07F108047A
:1036C0001D460FCD0FC40FCD0FC495E8070084E849
:1036D000070000237B6310E07B6B9B0038333B4487
:1036E00053F8303C7B607B6BDBB23A1D11461846C9
:1036F0001BF02EFA7B6B01337B637B6B0A2BEBDDBC
:1037000000BF00BF3837BD46B0BD00BFECFC0208AB
:1037100080B500AF00201BF0EDF91BF083F9FFF737
:10372000C9FF00BF80BD0000B0B5B2B000AF06F069
:10373000EDF900F0B7F800F0AFF900F07DF900F016
:1037400023F9484B07F1B8040FCB84E80F0007F1C9
:10375000B8030021184614F064FD0346424A136082
:10376000424B07F1A8040FCB84E80F0007F1A80330
:103770000021184614F055FD03463D4A13603D4BA9
:1037800007F18C041D460FCD0FC495E8070084E8AF
:10379000070007F18C030021184614F071FB034663
:1037A000354A1360354B07F170041D460FCD0FC429
:1037B00095E8070084E8070007F170030021184628
:1037C00014F05EFB03462E4A13602E4B07F154049F
:1037D0001D460FCD0FC495E8070084E8070007F1E8
:1037E00054030021184614F04BFB0346264A13608D
:1037F000264B07F138041D460FCD0FC495E807008E
:1038000084E8070007F138030021184614F038FB5C
:1038100003461F4A13601F4B07F11C041D460FCDC2
:103820000FC495E8070084E8070007F11C03002196
:10383000184614F025FB0346174A1360174B3C4605
:103840001D460FCD0FC495E8070084E807003B46EE
:103850000021184614F014FB0346114A136014F0BB
:10386000F8FAFEE718FD0208CC97002028FD0208B0
:103870009898002048FD0208F44F002070FD0208CF
:103880009870002098FD02083C750020C0FD0208D9
:10389000E07D0020E8FD02088486002010FE02087A
:1038A000288F002080B594B000AF07F11C033422AC
:1038B0000021184628F08EF807F1080300221A604C
:1038C0005A609A60DA601A6109F0ECFC2C4B1B6CB0
:1038D0002B4A43F080531364294B1B6C03F0805335
:1038E0007B607B68274B1B68264A43F44043136088
:1038F000244B1B6803F440433B603B680923FB6196
:103900004FF4A0233B6201233B6302237B634FF40C
:103910008003BB630423FB63D8233B6402237B64E3
:103920000923BB640223FB6407F11C03184609F05A
:1039300019FD0346002B01D000F036FE09F0C2FC51
:103940000346002B01D000F02FFE0F23BB600223A3
:10395000FB6000233B614FF4A0537B614FF4805325
:10396000BB6107F108030721184609F0A9FF0346C8
:10397000002B01D000F018FE00BF5037BD4680BDBF
:10398000003802400070004080B500AF264B274A47
:103990001A60254B00225A60234B7F229A60224BEB
:1039A000FF22DA60204B00221A611F4B00225A616D
:1039B0001D4B00229A611C480AF002FE0346002BB0
:1039C00001D000F0F1FD1A4B00221A70184B0022B2
:1039D0005A70174B00229A70154B0022DA60144B74
:1039E00000221A61012212490F480AF06DFE0346B7
:1039F000002B01D000F0D8FD0E4B01221A700D4BA8
:103A000001225A700B4B01229A700A4B0022DA7085
:103A10000122084904480AF04FFF0346002B01D059
:103A200000F0C2FD00BF80BD4C4F002000280040C8
:103A3000049900201899002080B500AF144B154A56
:103A40001A60134B4FF4E1325A60114B00229A6016
:103A50000F4B0022DA600E4B00221A610C4B0C2235
:103A60005A610B4B00229A61094B0022DA61084B24
:103A700000221A62064B00225A6205480BF090FBA6
:103A80000346002B01D000F08FFD00BF80BD00BFBA
:103A90006C4F00200048004080B58EB000AF07F1A9
:103AA000240300221A605A609A60DA601A61594B46
:103AB0001B6B584A43F010031363564B1B6B03F008
:103AC00010033B623B6A534B1B6B524A43F020038B
:103AD0001363504B1B6B03F02003FB61FB694D4BE1
:103AE0001B6B4C4A43F0400313634A4B1B6B03F0C0
:103AF0004003BB61BB69474B1B6B464A43F0040361
:103B00001363444B1B6B03F004037B617B69414BE4
:103B10001B6B404A43F0800313633E4B1B6B03F067
:103B200080033B613B693B4B1B6B3A4A43F001030B
:103B30001363384B1B6B03F00103FB60FB68354BD1
:103B40001B6B344A43F002031363324B1B6B03F0CD
:103B50000203BB60BB682F4B1B6B2E4A43F008036C
:103B600013632C4B1B6B03F008037B607B68294BB2
:103B70001B6B284A43F040031363264B1B6B03F077
:103B800040033B603B68002244F28101224807F079
:103B90001BFE00224021214807F016FE4FF400537F
:103BA0007B624FF48813BB620023FB6207F124039E
:103BB00019461B4807F038FB44F281037B6201235E
:103BC000BB620023FB6200233B6307F12403194619
:103BD000114807F029FB40237B620123BB620023CD
:103BE000FB6200233B6307F1240319460B4807F0EF
:103BF0001BFB80237B620023BB620023FB6207F177
:103C000024031946054807F00FFB00BF3837BD46AF
:103C100080BD00BF0038024000040240001802408E
:103C200000080240B0B59CB004AF78607968002904
:103C300003D1424827F042FD7DE0796800200A4622
:103C40000346C7E9022307F10803184627F036FFA9
:103C500003463B4A13603A4B1B6807F11000394A90
:103C6000502128F0E3FF07F110031946364827F0EA
:103C7000BFFC334B1B689B68DAB2344B1A70304B75
:103C80001B685B68DAB2314B5A702D4B1B681B689E
:103C9000DAB22E4B9A702D4B0022DA602B4B0022A9
:103CA0001A61002229492A480AF00EFD0346002B1A
:103CB00001D000F079FC224B1B689B69DAB2254BDE
:103CC0001A701F4B1B681B69DBB20133DAB2214B40
:103CD0005A701B4B1B68DB68DAB21E4B9A70184B8C
:103CE0001B685B69DBB2643BDAB21A4BDA70002204
:103CF000184917480AF0E0FD0346002B01D000F0F8
:103D000053FC144BDB781846124B5B781C46114B66
:103D10009B781D460D4B1B781A460C4B5B78194659
:103D20000A4B9B780293019100922B462246014652
:103D3000094827F05DFC6037BD46B0BD2CFE020887
:103D4000084F002044FE02085CFE0208049900208F
:103D50004C4F00201899002064FE020880B582B004
:103D600000AF7860391D4FF6FF73012203480BF056
:103D700065FA7B6818460837BD4680BD6C4F002049
:103D800080B58EB000AFF860C7E9002300233B6325
:103D90000023FB6200237B623B233B8307F11C0271
:103DA00007F118031946F86827F085FE786360E08C
:103DB0007B6B1B78702B15D17B6B01333B62386AB0
:103DC00026F0C8FB03461A463B681A442D493B6C53
:103DD0004FF4A47000FB03F30B4403F592731A60D5
:103DE00001233B633A6B7B6C9A4239D107F1140390
:103DF0001A462549786B27F05EFEB86221E0FB6A1F
:103E0000002B0AD1B86A26F0A5FB78627B6A002BEA
:103E100003D07B6A013B1D4A1360FB6A012B05D16D
:103E2000B86A26F097FB0346184A536007F114035B
:103E30001A461549002027F03EFEB862FB6A01339E
:103E4000FB62BB6A002BDAD1FB6A022B06D1104B56
:103E50001868002300220D4914F00EFD0023FB62B8
:103E600007F11C0207F118031946002027F023FE72
:103E700078637B6B002B9BD100BF00BF3837BD46FA
:103E800080BD00BFA03B002088FE0208FC4E002041
:103E9000CC97002080B582B000AF78604FF0FF3142
:103EA000002016F0B9FB0CF081FF05F08DFC4FF4FB
:103EB0007A7014F03DF81AF0E5F90346084A1360E9
:103EC000074B1B6807491846FFF7A4FB4FF47A70AD
:103ED00014F02EF8FFF71CFC012014F029F8FBE782
:103EE000209900208CFE020880B582B000AF786077
:103EF0004FF0FF31002016F08FFB0D4B1B78002B8D
:103F000012D005F025FE02460A4B1B68D31A0A4A56
:103F1000934209D905F01CFE0346064A13601B2292
:103F20000021034827F056FD012014F001F8E4E7D2
:103F3000DCFE00201C9900201FA10700B0B58EB048
:103F400002AF78604FF0FF31002016F065FB0A21C8
:103F50006E4827F04DFB07F12C030A226C496D488F
:103F6000FFF736F90346002B04D0FB6A19466A486E
:103F700027F03EFB694827F0A1FBFB69002BFCD032
:103F80000022674967480AF039FC00226649654803
:103F90000AF016FD644BDB786433FB61624B5B789F
:103FA000013BBB61604B9B787B615D4B1B783B6148
:103FB0005B4B5B78FB605A4B9B78BB6007F1080357
:103FC000184627F065FF02460B465849C1E9002311
:103FD000564BD3E90001564BD3E90023994208BF61
:103FE000904200F08F80514BD3E900235049C1E942
:103FF00000234E4827F062FD03464E4A13604E4BA5
:1040000000221A604AE04C4B1B68414A4FF4A471ED
:1040100001FB03F3134403F592731B6800221C4653
:104020001546424BD3E90023A242AB4131DB424B60
:104030001B68374A4FF4A47101FB03F3134403F5E3
:1040400092731B68002B24D03B4B1B684FF4A47267
:1040500002FB03F320332E4A134403331946374837
:1040600029F098F9324BD3E900233349096801203C
:10407000019000913148FFF783FE2F4B1B68244AC3
:104080004FF4A47101FB03F3134403F59273002270
:104090001A60294B1B680133274A1360264B1B68A3
:1040A000092BB0D9244B00221A6027E0214B1B6852
:1040B000214A18491846FFF7D9F80346002B18D1B2
:1040C0001D4B1B684FF4A47202FB03F32033104A0C
:1040D000134403331946194829F05CF9144BD3E90A
:1040E0000023154909680020019000911348FFF74B
:1040F00047FE114B1B6801330F4A13600E4B1B68C0
:10410000092BD3D9012013F013FF36E794FE0208E0
:10411000A03B002024990020A4FE0208C8FE02084B
:10412000049900204C4F002018990020104F0020C7
:10413000184F0020084F0020204F0020244F00205F
:1041400080B582B000AF78604FF0FF31002016F0EC
:1041500063FA314B1B684FF0FF323049184614F0B8
:10416000C7FD0346012B52D12C4B5B68002B17D1A6
:104170002A4B1A682A4913469B0013449B000B44A0
:1041800010331868254B1A68254913469B001344C1
:104190009B000B440C331B880022194607F014FBCC
:1041A0001E4B5B68012B17D11C4B1A681C49134628
:1041B0009B0013449B000B4410331868174B1A687C
:1041C000174913469B0013449B000B440C331B8878
:1041D0000122194607F0F8FA104B5B68022B16D142
:1041E0000E4B1A680E4913469B0013449B000B4468
:1041F00010331868094B1A68094913469B00134489
:104200009B000B440C331B88194607F0F6FA01207B
:1042100013F08EFE9DE700BFCC970020FC4E0020DF
:104220001838030880B58AB000AF786001237B623C
:104230000CF092FC25F00EFE534B1B78022B40F045
:104240009B807B6A012B68D14FF47A7013F070FE6B
:104250004E4827F033FA07F1080319464C4813F08B
:10426000E7FC034687F8233097F82330002B2DD145
:1042700000F0C6FE01F0A0F901F0E6FA01F094FEAC
:1042800001F0A8FF434B186800230222002116F01A
:104290000FFA414B186800230222002116F008FA99
:1042A0003E4B186800230222002116F001FA3C4B15
:1042B000186800230222002116F0FAF9394B186819
:1042C00000230222002116F0F3F924E000F054FC50
:1042D000304B186800230222002116F0E9F92E4B1A
:1042E000186800230222002116F0E2F92B4B18680F
:1042F00000230222002116F0DBF9294B1868002365
:104300000222002116F0D4F9264B1868002302225D
:10431000002116F0CDF900237B62234B1B684FF080
:10432000FF322249184614F0E3FC0346012B25D145
:104330001E4B1B88013B032B16D801A252F823F019
:1043400051430008574300085D43000863430008D9
:1043500001F03CFC09E000F02DF906E001F0D4F991
:1043600003E001F0A5FE00E000BF104B1B881946DA
:104370000F4827F03DF901E000BF00E000BF012039
:1043800013F0D6FD58E700BFE8670220E8FE0208F8
:1043900000FF0208F44F0020987000203C750020B8
:1043A000E07D0020288F002098980020044F0020F6
:1043B0000CFF020890B5F5B000AF07F5E873A3F560
:1043C000E67318604FF0FF31002016F025F9002346
:1043D000C7F86C3107F5B87355220021184627F04D
:1043E000F9FA07F5E873A3F5E47318464FF4B273CE
:1043F0001A46002127F0EEFA05F0AAFBC7F8C8011B
:10440000002387F8CF31A5E097F8CF21564913460E
:10441000DB0013441B010B441B68012B40F095800B
:1044200097F8CF21514913469B0013449B000B443E
:104430001033186897F8CF214C4913469B0013445A
:104440009B000B440C331B8897F8CF41194607F0AB
:10445000A3F903461A4604F5E8733B4403F8642CB9
:1044600097F8CF3103F5E8733B4413F8643C012B14
:104470006BD197F8CF2107F5E873A3F5E47353F8F0
:104480002230D7F8C821D31AC72B5ED997F8CF218D
:1044900007F5E873A3F5E473D7F8C81143F82210C1
:1044A00097F8CF2107F5E873A3F5E47353F82230AA
:1044B00097F8CF2119462E4827F09AF8002387F85D
:1044C000CE313EE097F8CE212A4913465B001344D3
:1044D0009B000B44196897F8CE21264813465B00D1
:1044E00013449B00034404331B681A46224827F0F8
:1044F0007FF897F8CE211F4913465B0013449B00B9
:104500000B441A6897F8CF319A4215D197F8CE210B
:10451000184913465B0013449B000B4404331B688B
:10452000164A1360154B02225A60154B1868002377
:104530000022124914F0A0F997F8CE31013387F820
:10454000CE3197F8CE31632BBCD997F8CF310133F8
:1045500087F8CF3197F8CF31582B7FF655AF012030
:1045600013F0E6FC48E700BF0C04002018380308ED
:1045700028FF02081C36002040FF0208FC4E0020E5
:10458000CC97002080B582B000AF78607B681B6854
:10459000044A934201D105F0C7FA00BF0837BD466F
:1045A00080BD00BF0010004080B400AF72B600BFF5
:1045B000FEE7000080B584B000AF0023FB6000235D
:1045C000BB600A22C449C54812F056FD0346002BC1
:1045D00040F0A982FEF734FBF860C14AC149F8688F
:1045E000FEF786FAC04AC149F868FEF781FAC04A68
:1045F000C049F868FEF77CFABF4AC049F868FEF780
:1046000077FAB74B9B6A07EE903AB8EEE77BB0EECD
:10461000470BBB49F868FEF747FAB14B93ED0C7BAB
:10462000B0EE470BB749F868FEF73EFAAC4B93ED96
:104630000E7BB0EE470BB449F868FEF735FAA84B8D
:10464000B3F9403007EE903AB8EEE77BB0EE470B97
:10465000AE49F868FEF728FAA14BB3F9423007EEED
:10466000903AB8EEE77BB0EE470BA949F868FEF741
:104670001BFA9B4BB3F9443007EE903AB8EEE77B58
:10468000B0EE470BA349F868FEF70EFA944BB3F966
:10469000463007EE903AB8EEE77BB0EE470B9E4906
:1046A000F868FEF701FA8E4BB3F9483007EE903AFE
:1046B000B8EEE77BB0EE470B9849F868FEF7F4F9DF
:1046C000874BB3F94A3007EE903AB8EEE77BB0EE8D
:1046D000470B9349F868FEF7E7F9814BB3F94C3083
:1046E00007EE903AB8EEE77BB0EE470B8D49F868DD
:1046F000FEF7DAF97A4BB3F94E3007EE903AB8EE9E
:10470000E77BB0EE470B8849F868FEF7CDF9744BAC
:10471000B3F9503007EE903AB8EEE77BB0EE470BB6
:104720008249F868FEF7C0F96D4BB3F9523007EED5
:10473000903AB8EEE77BB0EE470B7D49F868FEF79C
:10474000B3F9674BB3F9543007EE903AB8EEE77B14
:10475000B0EE470B7749F868FEF7A6F9604BB3F95E
:10476000563007EE903AB8EEE77BB0EE470B724951
:10477000F868FEF799F95A4BB3F9583007EE903ABA
:10478000B8EEE77BB0EE470B6C49F868FEF78CF9A2
:10479000534BDB6D07EE903AB8EEE77BB0EE470B7C
:1047A0006749F868FEF780F9664A6749F868FEF7D6
:1047B0009FF9664A6649F868FEF79AF9654A6649BC
:1047C000F868FEF795F9654A6549F868FEF790F9CB
:1047D000644A6549F868FEF78BF9414BB3F9A2309A
:1047E00007EE903AB8EEE77BB0EE470B5F49F8680A
:1047F000FEF75AF93A4BB3F9A43007EE903AB8EE07
:10480000E77BB0EE470B5A49F868FEF74DF9344B99
:10481000B3F9A63007EE903AB8EEE77BB0EE470B5F
:104820005449F868FEF740F92D4BB3F9A83007EE6C
:10483000903AB8EEE77BB0EE470B4F49F868FEF7C9
:1048400033F9274BB3F9AA3007EE903AB8EEE77B7D
:10485000B0EE470B4949F868FEF726F9204BB3F94B
:10486000AC3007EE903AB8EEE77BB0EE470B444928
:10487000F868FEF719F91A4BB3F9AE3007EE903A23
:10488000B8EEE77BB0EE470B3E49F868FEF70CF94F
:10489000134BB3F9B03007EE903AB8EEE77BB0EEC9
:1048A000470B3949F868FEF7FFF80D4BB3F9B23002
:1048B00007EE903AB8EEE77BB0EE470B3349F86865
:1048C000FEF7F2F8064BB3F9B43007EE903AB8EEC3
:1048D000E77BB0EE470B5BE068FF0208781B012026
:1048E000D03A002074FF0208DA3A002080FF020864
:1048F000E93A00208CFF0208F43A002094FF0208F5
:104900009CFF0208A8FF0208B0FF0208B8FF0208D7
:10491000C4FF0208D0FF0208DCFF0208E8FF02081B
:10492000F4FF0208000003080C0003081800030845
:1049300024000308300003083C0003084800030873
:1049400054000308303B0020600003083A3B00207D
:104950006C000308443B002078000308533B002010
:1049600084000308623B0020900003089C000308B9
:10497000A8000308B4000308C0000308CC00030823
:10498000D8000308E4000308F0000308FC00030853
:104990006749F868FEF788F8664BB3F9B63007EE5A
:1049A000903AB8EEE77BB0EE470B6349F868FEF744
:1049B0007BF8604BB3F9B83007EE903AB8EEE77B7E
:1049C000B0EE470B5D49F868FEF76EF8594BB3F946
:1049D000BA3007EE903AB8EEE77BB0EE470B584995
:1049E000F868FEF761F8534BB3F9BC3007EE903A24
:1049F000B8EEE77BB0EE470B5249F868FEF754F883
:104A00004C4BB3F9BE3007EE903AB8EEE77BB0EE10
:104A1000470B4D49F868FEF747F8464BB3F9C030ED
:104A200007EE903AB8EEE77BB0EE470B4749F868DF
:104A3000FEF73AF83F4BB3F9C23007EE903AB8EEC2
:104A4000E77BB0EE470B4249F868FEF72DF8394B8B
:104A500093F8C43007EE903AB8EE677BB0EE470BA0
:104A60003C49F868FEF720F8324B93F8C53007EE62
:104A7000903AB8EE677BB0EE470B3749F868FEF71F
:104A800013F82C4B93F8C63007EE903AB8EE677BDC
:104A9000B0EE470B3149F868FEF706F8254B93F85E
:104AA000C73007EE903AB8EE677BB0EE470B2C4963
:104AB000F868FDF7F9FF1F4B93F8C83007EE903AFE
:104AC000B8EE677BB0EE470B2649F868FDF7ECFFC0
:104AD000184B93F8C93007EE903AB8EE677BB0EE0A
:104AE000470B2149F868FDF7DFFFF868FDF71AF971
:104AF000B860B868FBF7AEFB02463B46B9681B4896
:104B000012F01BFE0346FB71B86825F02FFDF86814
:104B1000FCF76AF846F29C320021154826F05AFF4D
:104B2000124813F056F800BF1037BD4680BD00BFD5
:104B300008010308D03A00201401030820010308EB
:104B40002C0103083801030844010308500103083D
:104B50005C0103086801030874010308800103086D
:104B60008C01030898010308A4010308781B0120A5
:104B7000DC9A00200000000080B584B000AF002364
:104B8000FB600023BB600A22BB49BC4812F074FAE8
:104B90000346002B40F02982B94826F08FFDFEF72E
:104BA0004FF8F860B74AB849F868FDF7A1FFB74A6F
:104BB000B749F868FDF79CFFB64AB749F868FDF7B2
:104BC00097FFB64AB649F868FDF792FF9FED9E0B36
:104BD000B449F868FDF768FF9FED9B0BB249F86890
:104BE000FDF762FF9FED980BB049F868FDF75CFF99
:104BF0009FED950BAE49F868FDF756FF9FED920BC0
:104C0000AC49F868FDF750FF9FED8F0BAA49F86893
:104C1000FDF74AFF9FED8C0BA849F868FDF744FFAC
:104C20009FED890BA649F868FDF73EFF9FED860BC7
:104C3000A449F868FDF738FF9FED830BA249F86897
:104C4000FDF732FF9FED800BA049F868FDF72CFFC0
:104C50009FED7D0B9E49F868FDF726FF9FED7A0BCF
:104C60009C49F868FDF720FF9FED770B9A49F8689B
:104C7000FDF71AFF9FED740B9849F868FDF714FFD4
:104C80009FED710B9649F868FDF70EFF9FED700BD5
:104C90009449F868FDF708FF9FED6B0B9249F8689F
:104CA000FDF702FF7B4A9149F868FDF721FF794A39
:104CB0008F49F868FDF71CFF764A8E49F868FDF7C2
:104CC00017FF744A8C49F868FDF712FF714A8B4947
:104CD000F868FDF70DFF9FED5C0B8949F868FDF75B
:104CE000E3FE9FED590B8749F868FDF7DDFE9FED68
:104CF000560B8549F868FDF7D7FE9FED530B8349A6
:104D0000F868FDF7D1FE9FED500B8149F868FDF77B
:104D1000CBFE9FED510B7F49F868FDF7C5FE9FED77
:104D2000500B7D49F868FDF7BFFEB2EE060B7B49DC
:104D3000F868FDF7B9FE9FED4C0B7949F868FDF76F
:104D4000B3FE9FED4B0B7749F868FDF7ADFE9FED85
:104D5000480B7549F868FDF7A7FE9FED450B7349B1
:104D6000F868FDF7A1FE9FED380B7149F868FDF773
:104D70009BFE9FED390B6F49F868FDF795FE9FED9F
:104D8000380B6D49F868FDF78FFEB2EE060B6B49E4
:104D9000F868FDF789FEB7EE000B6949F868FDF782
:104DA00083FE9FED290B6749F868FDF77DFE9FEDB7
:104DB000260B6549F868FDF777FE9FED230B6349E5
:104DC000F868FDF771FE9FED200B6149F868FDF76B
:104DD0006BFE9FED1D0B5F49F868FDF765FE9FEDCB
:104DE0001A0B5D49F868FDF75FFEF868FCF79AFF5B
:104DF000B860B868FBF72EFA02463B46B9681F4810
:104E000012F09BFC0346FB71B86825F0AFFB5348DA
:104E100026F054FCF868FBF7E7FE46F29C320021CE
:104E20004F4826F0D7FD154812F0D3FE4D4B1B4AD4
:104E300024331268114619800233120C1A70494B40
:104E4000104A92E803008FE000000000000000001C
:104E500000000000006C9D40000000000000684061
:104E60000000000000006540000000000000544009
:104E70000000000000E06F4068FF0208781B01207E
:104E8000B0010308D001030874FF0208D801030829
:104E900080FF0208E40103088CFF0208E801030810
:104EA00094FF02089CFF0208A8FF0208B0FF020856
:104EB000B8FF0208C4FF0208D0FF0208DCFF0208A6
:104EC000E8FF0208F4FF0208000003080C000308D2
:104ED0001800030824000308300003083C000308FE
:104EE0004800030854000308EC01030860000308AD
:104EF0006C0003087800030884000308900003088E
:104F00009C000308A8000308B4000308C0000308BD
:104F1000CC000308D8000308E4000308F0000308ED
:104F2000FC0003080801030814010308200103081A
:104F30002C01030838010308440103085001030849
:104F40005C01030868010308740103088001030879
:104F50008C01030898010308A4010308F801030861
:104F6000DC9A0020D03A0020186004331980214ACE
:104F7000214B03CB106051601B7813721F4BC02272
:104F8000A3F8AC201D4BA822A3F8AE201B4B0B228C
:104F9000A3F8B020194B5022A3F8B220174BFF22E0
:104FA000A3F8B420154BFF22A3F8B620134BFF2221
:104FB000A3F8B820114B0022A3F8BA200F4BC0224F
:104FC000A3F8BC200D4BA822A3F8BE200B4B0B224C
:104FD000A3F8C020094B0122A3F8C220074B40F2DE
:104FE0005B72DA65054B0022DA6500BF1037BD46FB
:104FF00080BD00BFDA3A0020D8010308D03A002073
:1050000080B5ADF5856D00AF07F581631946C248DF
:1050100012F00EFE034687F8273497F82734002B4A
:1050200040F09F820122BC49BC4812F025F803469B
:10503000002B40F096820023C7F8043407F20443A3
:10504000391D4FF48062B54812F0E9F9034687F83C
:1050500027343B1D1846FCF7C3FDC7F82004B049B0
:10506000D7F82004FDF745FC03461B691946AD48F7
:1050700028F090F9AC49D7F82004FDF73AFC034634
:105080001B691946A94828F085F9A949D7F82004D1
:10509000FDF72FFC03461B691946A64828F07AF94C
:1050A000A549D7F82004FDF724FC03461B691946DF
:1050B000A24828F06FF9A249D7F82004FDF719FC9F
:1050C00003465B69974A93629E49D7F82004FDF72F
:1050D00010FC03465B6907EE903AB8EEE77B914B14
:1050E00083ED0C7B9849D7F82004FDF702FC0346BA
:1050F0005B6907EE903AB8EEE77B8A4B83ED0E7B57
:105100009249D7F82004FDF7F4FB03465B691AB215
:10511000844BA3F840208E49D7F82004FDF7E9FB23
:1051200003465B691AB27F4BA3F842208949D7F83E
:105130002004FDF7DEFB03465B691AB2794BA3F846
:1051400044208549D7F82004FDF7D3FB03465B696B
:105150001AB2744BA3F846208049D7F82004FDF713
:10516000C8FB03465B691AB26E4BA3F848207C4922
:10517000D7F82004FDF7BDFB03465B691AB2694B03
:10518000A3F84A207749D7F82004FDF7B2FB03467D
:105190005B691AB2634BA3F84C207349D7F820041B
:1051A000FDF7A7FB03465B691AB25E4BA3F84E20DE
:1051B0006E49D7F82004FDF79CFB03465B691AB2E1
:1051C000584BA3F850206A49D7F82004FDF791FB0B
:1051D00003465B691AB2534BA3F852206549D7F8CE
:1051E0002004FDF786FB03465B691AB24D4BA3F81A
:1051F00054206149D7F82004FDF77BFB03465B6927
:105200001AB2484BA3F856205C49D7F82004FDF7A2
:1052100070FB03465B691AB2424BA3F85820584909
:10522000D7F82004FDF765FB03465B693D4AD3656B
:105230005449D7F82004FDF75CFB03461B69194667
:10524000514828F0A7F85149D7F82004FDF751FB41
:1052500003461B6919464E4828F09CF84D49D7F87B
:105260002004FDF746FB03461B6919464A4828F00F
:1052700091F84A49D7F82004FDF73BFB03461B6928
:105280001946474828F086F84649D7F82004FDF724
:1052900030FB03461B691946434828F07BF8434915
:1052A000D7F82004FDF725FB03465B691AB21D4BB6
:1052B000A3F8A2203E49D7F82004FDF71AFB0346C5
:1052C0005B691AB2174BA3F8A4203A49D7F8200417
:1052D000FDF70FFB03465B691AB2124BA3F8A62039
:1052E0003549D7F82004FDF704FB03465B691AB281
:1052F0000C4BA3F8A8203149D7F82004FDF7F9FAA0
:1053000003465B691AB2074BA3F8AA202C49D7F8C9
:105310002004FDF7EEFA55E068FF0208781B012033
:1053200074FF0208D03A002080FF0208DA3A002019
:105330008CFF0208E93A002094FF0208F43A0020AA
:105340009CFF0208A8FF0208B0FF0208B8FF02088D
:10535000C4FF0208D0FF0208DCFF0208E8FF0208D1
:10536000F4FF0208000003080C00030818000308FB
:1053700024000308300003083C0003084800030829
:105380005400030860000308303B00206C00030851
:105390003A3B002078000308443B002084000308C7
:1053A000533B002090000308623B00209C00030850
:1053B000A8000308B4000308C0000308CC000308D9
:1053C000D800030803465B691AB2684BA3F8AC2007
:1053D0006749D7F82004FDF78CFA03465B691AB2D7
:1053E000624BA3F8AE206349D7F82004FDF781FA99
:1053F00003465B691AB25D4BA3F8B0205E49D7F84B
:105400002004FDF776FA03465B691AB2574BA3F8FE
:10541000B2205A49D7F82004FDF76BFA03465B69BE
:105420001AB2524BA3F8B4205549D7F82004FDF71F
:1054300060FA03465B691AB24C4BA3F8B620514997
:10544000D7F82004FDF755FA03465B691AB2474BBB
:10545000A3F8B8204C49D7F82004FDF74AFA0346D0
:105460005B691AB2414BA3F8BA204849D7F8200427
:10547000FDF73FFA03465B691AB23C4BA3F8BC2028
:105480004349D7F82004FDF734FA03465B691AB2A2
:10549000364BA3F8BE203F49D7F82004FDF729FA80
:1054A00003465B691AB2314BA3F8C0203A49D7F8DA
:1054B0002004FDF71EFA03465B691AB22B4BA3F8D2
:1054C000C2203649D7F82004FDF713FA03465B697A
:1054D000DAB2264B83F8C4203149D7F82004FDF70F
:1054E00008FA03465B69DAB2204B83F8C5202D49E0
:1054F000D7F82004FDF7FDF903465B69DAB21B4BD0
:1055000083F8C6202849D7F82004FDF7F2F90346AE
:105510005B69DAB2154B83F8C7202449D7F8200419
:10552000FDF7E7F903465B69DAB2104B83F8C82050
:105530001F49D7F82004FDF7DCF903465B69DAB2AE
:105540000A4B83F8C920D7F82004FBF74DFB3B1D1D
:105550004FF480620021184626F03CFA154812F0FC
:1055600038FB00BF07F58567BD4680BDD03A0020F7
:10557000E4000308F0000308FC0003080801030826
:1055800014010308200103082C0103083801030853
:1055900044010308500103085C0103086801030883
:1055A00074010308800103088C01030898010308B3
:1055B000A4010308781B012090B58DB000AF002333
:1055C000BB6207F108031946464812F031FB034657
:1055D00087F8273097F82730002B7ED101224149E8
:1055E000414811F049FD0346002B76D13B1D46F2A0
:1055F0009C323E493C4811F012FF034687F82730A1
:105600003B4826F05BF83948FCF7EAFAB862002319
:10561000FB624FE0F96AB86AFDF70FF93862FB6A7E
:105620004FF4A47202FB03F3324A9C183249386AE1
:10563000FDF75FF903461B691946204627F0AAFECD
:10564000FB6A4FF4A47202FB03F32033294A13448C
:10565000DC1C2A49386AFDF74CF903461B691946D8
:10566000204627F097FE2649386AFDF742F903469F
:105670005B6918461F4AFB6A4FF4A47101FB03F3F0
:10568000134403F592731860FB6A4FF4A47202FB93
:1056900003F303F59473174A9C181A49386AFDF707
:1056A00028F903461B691946204627F073FEFB6A5A
:1056B0000133FB62B86AFDF77CF80246FB6A93424D
:1056C000A8DBB86AFBF790FA46F29C320021074843
:1056D00026F080F9044812F07CFA00BF3437BD464A
:1056E00090BD00BF10020308781B0120DC9A002047
:1056F0001C020308A03B0020300203083802030804
:10570000400203084802030880B58CB000AF0023B4
:10571000BB6200237B623B1D1946414812F088FAA8
:10572000034687F823300023FB610023FB620A2233
:105730003B493C4811F0A0FC0346002B68D13A4895
:1057400025F0BCFFFDF768FAB862FDF779FA7862D8
:105750000023FB6237E0FDF773FA7862796AB86A72
:10576000FDF71DF9FB6A4FF4A47202FB03F32F4A05
:1057700013441A462E49786AFDF7BAF9FB6A4FF4CA
:10578000A47202FB03F32033284A134403331A465E
:105790002849786AFDF7ACF99FED1F0B2649786A16
:1057A000FDF782F9FB6A4FF4A47202FB03F303F5E1
:1057B00094731E4A13441A462049786AFDF798F9F3
:1057C000FB6A0133FB62FB6A092BC4DDB86AFCF794
:1057D000A9FAF861F869FAF73DFD02463B46F96916
:1057E000104811F0AAFF034687F82330F86924F027
:1057F000BDFE134825F062FFB86AFBF7F5F946F2E3
:105800009C3200210F4826F0E5F8064812F0E1F935
:1058100000BF3037BD4680BD000000000000000022
:1058200010020308781B012050020308A03B00204F
:105830003002030838020308400203084802030844
:105840006C020308DC9A002090B58DB000AF0023F5
:10585000BB623B1D1946144812F0EAF9034687F86B
:10586000273097F82730002B40F07D8101220E4928
:105870000E4811F001FC0346002B40F074813B46BA
:1058800046F29C320A49094811F0C9FD034687F8DF
:105890002730084825F012FF0548FCF7A1F9B86247
:1058A0000023FB624BE100BF80020308781B01204C
:1058B000DC9A00208C020308F96AB86AFCF7BDFF85
:1058C0003862AB49386AFDF714F8F861FB69596929
:1058D000A848FA6A1346DB0013441B01034419600D
:1058E000A549386AFDF705F803465969A148FA6ADF
:1058F0001346DB0013441B010344043319609F4922
:10590000386AFCF7F6FF034659699A48FA6A134663
:10591000DB0013441B010344083319609849386ABB
:10592000FCF7E7FF034659699248FA6A1346DB0021
:1059300013441B0103440C3319609249386AFCF785
:10594000D8FF034659698B48FA6A1346DB001344B3
:105950001B010344103319608B49386AFCF7C9FFF7
:10596000034659698348FA6A1346DB0013441B0156
:10597000034414331960FA6A1346DB0013441B0115
:1059800018337C4A9C188149386AFCF7B2FF0346F9
:105990001B691946204627F0FDFC7D49386AFCF753
:1059A000A8FF034659697348FA6A1346DB0013449B
:1059B0001B010344283319607649386AFCF799FFC4
:1059C000034659696B48FA6A1346DB0013441B010E
:1059D00003442C3319607049386AFCF78AFF034688
:1059E00059696448FA6A1346DB0013441B010344F7
:1059F000303319606949386AFCF77BFF03465969FF
:105A00005C48FA6A1346DB0013441B010344343339
:105A100019606349386AFCF76CFF034659695548B9
:105A2000FA6A1346DB0013441B0103443833196040
:105A30005C49386AFCF75DFF034659694D48FA6ACC
:105A40001346DB0013441B0103443C331960FA6A1C
:105A50001346DB0013441B014033464A9C1852494D
:105A6000386AFCF746FF03461B691946204627F0B3
:105A700091FC4E49386AFCF73CFF034659693D48A2
:105A8000FA6A1346DB0013441B01034460331960B8
:105A90004749386AFCF72DFF03465B6918B2354960
:105AA000FA6A1346DB0013441B010B4464330246BD
:105AB0001A804049386AFCF71CFF03465B6918B23C
:105AC0002C49FA6A1346DB0013441B010B4466336E
:105AD00002461A803849386AFCF70BFF03465B69B7
